:020000040800F2
:10000000A01E002079040008DD010008DF010008BF
:10001000E3010008E7010008EB0100080000000010
:10002000000000000000000000000000EF010008D8
:10003000F101000800000000F3010008F5010008CC
:100040009304000893040008930400089304000834
:100050009304000893040008930400089304000824
:100060009304000893040008930400089304000814
:100070009304000893040008930400089304000804
:1000800093040008930400089304000893040008F4
:1000900093040008930400089304000893040008E4
:1000A00093040008930400089304000893040008D4
:1000B00097340008D3370008BB37000893040008C2
:1000C00093040008930400089304000893040008B4
:1000D00093040008930400087D4B0008C33D00080A
:1000E00069600008930400089304000800F002F817
:1000F00000F05FF80AA090E8000C82448344AAF163
:100100000107DA4501D100F054F8AFF2090EBAE860
:100110000F0013F0010F18BFFB1A43F0010318473B
:10012000A0F30000C0F300000A444FF0000C10F8E8
:10013000013B13F0070408BF10F8014B1D1108BF65
:1001400010F8015B641E05D010F8016B641E01F805
:10015000016BF9D113F0080F1EBF10F8014BAD1C55
:100160000C1B09D16D1E58BF01F801CBFAD505E073
:1001700014F8016B01F8016B6D1EF9D59142D6D3CD
:10018000704700000023002400250026103A28BFF5
:1001900078C1FBD8520728BF30C148BF0B607047F9
:1001A00064290BF0B580002070471FB51FBD10B546
:1001B00010BD0BF07BFA1146FFF7F7FF00F00CF9CA
:1001C0000BF099FA03B4FFF7F2FF03BC02F0BAFB9D
:1001D00030BF72B662B680F308887047704700BFC0
:1001E000FEE700BFFEE700BFFEE700BFFEE7704787
:1001F00070477047704700000CB5002001900090D8
:100200006C48006840F480306A49086000BF694863
:10021000006800F4003000900198401C01900098A4
:1002200018B90198B0F5A06FF1D16248006800F4E8
:10023000003010B10120009001E0002000900098F3
:10024000012843D15C48006840F010005A4908601A
:100250000846006820F0030008600846006840F087
:1002600002000860534840685249486008464068A8
:1002700048600846406840F480604860084640682E
:1002800020F47C1048600846406840F4E81048605C
:100290000846006840F08070086000BF454800686C
:1002A00000F000700028F9D04248406820F00300B8
:1002B000404948600846406840F00200486000BF7E
:1002C0003C48406800F00C000828F9D10CBD10B57E
:1002D000FFF792FF10BD10B53648006840F00100EE
:1002E000344908600846406834490840314948604C
:1002F00008460068324908402E49086008460068F0
:1003000020F4802008600846406820F4FE00486021
:100310004FF41F008860FFF7DAFF4FF000602949B3
:10032000086010BD10B5002100200022214B5B6841
:1003300003F00C0121B1042906D0082928D107E0D7
:10034000214B224C236027E01F4B204C236023E0ED
:10035000184B5B6803F47010164B5B6803F4803233
:10036000022303EB904022B9194B4343174C2360FF
:100370000DE0104B5B6803F4003323B1144B43438F
:10038000124C236003E0104B4343104C236003E006
:100390000D4B0E4C236000BF00BF064B5B68C3F3E0
:1003A00003130C4CE15C094B1B68CB40074C2360EA
:1003B00010BD000000100240002002400000FFF8C5
:1003C000FFFFF6FE08ED00E000127A0000000020BA
:1003D00000093D0004000020022002F05BF902F059
:1003E000E9F8022002F040FA012002F03DFA02F0A2
:1003F0000DFB02F03BFB002141F61F4003F0CAF861
:100400004FF4E13002F0BBFA4FF4165003F08AFCCF
:1004100003F018F903F060F902F097FE03F0EEF92B
:1004200002F04FFD0AF07AFC0AF08CFC08200E491D
:10043000087003F08DFE16E00C48007830B904F027
:10044000E3F806F0E3FD06F049FB01E006F078FE74
:1004500001200749087000200649087000BF0448C1
:1004600000780028FBD1E7E7300000201B000020C7
:100470004500002044000020094880470948004703
:10048000FEE7FEE7FEE7FEE7FEE7FEE7FEE7FEE744
:10049000FEE7FEE704480549054A064B70470000A1
:1004A000D7020008ED000008A0180020A01E0020C0
:1004B000A01A0020A01A002031490143314A1160DE
:1004C000704770B5002100230F22C47804B32D4C6F
:1004D000246804F4E064C4F5E064210AC1F1040373
:1004E000CA40447804FA03F1847814402143090196
:1004F000254C0678A155047804F01F050124AC4072
:1005000005786D11AD0005F1E025C5F8004109E061
:10051000047804F01F050124AC401C4D06787611C8
:1005200045F8264070BD1A4A0A400243154B1B1F6E
:100530001A60704739B1134A121D12680243114BF9
:100540001B1D1A6006E00F4A121D126882430D4BF4
:100550001B1D1A607047042808D14FF0E02109697B
:1005600041F004014FF0E022116107E04FF0E0217B
:10057000096921F004014FF0E02211617047000089
:100580000000FA050CED00E000E400E080E100E08E
:1005900080FFFF1F10B50446FA48844208D10121AC
:1005A000401500F0ABFE0021601500F0A7FE17E03B
:1005B000F548844208D10121001500F09FFE00217A
:1005C000201500F09BFE0BE0F048844208D1012189
:1005D000C80300F093FE00214FF4004000F08EFEAF
:1005E00010BD30B50246002000235068E84C204082
:1005F0000D790C6844EA0524204350609068E54C6E
:100600002040D1E902542C434D7944EA450420436B
:100610009060D06A20F470000C7C641EE4B2234326
:1006200040EA0350D06230BD002101600171417188
:100630008160C16001210174704721B1826842F07C
:100640000102826003E0826822F00102826070474A
:1006500021B1826842F48072826003E0826822F4F1
:1006600080728260704710B50023CBB21AB1446823
:100670001C43446002E044689C43446010BD8168B0
:1006800041F0080181607047014600208A6802F04D
:1006900008020AB1012000E000207047816841F0A3
:1006A000040181607047014600208A6802F004025C
:1006B0000AB1012000E00020704721B1826842F4B5
:1006C000A002826003E0826822F4A0028260704788
:1006D000014600208A6802F480020AB1012000E08D
:1006E0000020704710B50A4600210023416821F41C
:1006F0006041531E41EA4331416010BD21B142685F
:1007000042F40062426003E0426822F40062426008
:100710007047F0B504460D4600200021092D11DD7B
:10072000E068A5F10A0606EB4607072606FA07F178
:100730008843A5F10A0606EB460603FA06F10843CC
:10074000E0600CE0206905EB4507072606FA07F193
:10075000884305EB450603FA06F108432061072AA2
:100760000FDA606B561E06EB86071F2606FA07F1A6
:100770008843561E06EB860605FA06F108436063B9
:1007800022E00D2A0FDA206BD61F06EB86071F2604
:1007900006FA07F18843D61F06EB860605FA06F12E
:1007A0000843206310E0E06AA2F10D0606EB86071D
:1007B0001F2606FA07F18843A2F10D0606EB86060E
:1007C00005FA06F10843E062F0BD21B1826842F407
:1007D0008012826003E0826822F480128260704797
:1007E0000146C86C80B2704766484C30006870475C
:1007F00021B1426842F48062426003E0426822F420
:1008000080624260704721B1426842F48052426087
:1008100003E0426822F48052426070470A46002199
:10082000816821F4E04111438160704721B1826801
:1008300042F40042826003E0826822F40042826057
:10084000704721B1826842F40212826003E082683C
:1008500022F4021282607047014600208A6802F486
:1008600000120AB1012000E000207047F0B50446F4
:100870001546002000220026092911DDE068A1F1BB
:100880000A0707EB470C072707FA0CF29043A1F180
:100890000A0707EB470703FA07F21043E0600CE092
:1008A000206901EB410C072707FA0CF2904301EB9A
:1008B000410703FA07F210432061A06BC0F3015611
:1008C000EF1C06F1010CA7EB0C0707EB870C1F27A9
:1008D00007FA0CF29043EF1C06F1010CA7EB0C0792
:1008E00007EB870701FA07F21043A063F0BD10B5CC
:1008F0000A4600210023816B21F44011531E41EA76
:100900000351816310BD08B5002300930090009B44
:100910000B440093009B1A6008BD08B502460020F6
:100920000090009201F12800009B1844009000986C
:10093000006880B208BD0A4600214168164B194084
:100940001143416070474162826270470A4600214C
:10095000416821F01F0111434160704740B10949CE
:100960000831096841F40001064A0832116007E0C5
:1009700004490831096821F40001024A0832116073
:10098000704700000024014000280140003C014065
:10099000FFFEF0FFFDF7F1FFFFFD3FFF02460020E5
:1009A00013680B400BB1012000E000207047CA43E0
:1009B0000260704770B502460020002300240B122D
:1009C0005568CEB205EA060415681D4015B10CB194
:1009D000012000E0002070BD00220A12D343036012
:1009E0007047000010B5012000F0A2FC002000F0CC
:1009F0009FFC10BD2A49086070472949091F0860FB
:100A00007047274984310860704701460020254A15
:100A100010884FF67F4210400843224A10807047EA
:100A2000014600201F4A10884FF68072104008438C
:100A30001C4A1080704708B500220092194A2C3ACF
:100A40000092009A02440092009A116008BD08B515
:100A500001460020009013482C380090009808446C
:100A600000900098008808BD0D489C300068C0B216
:100A700070470C480830008840F0010009490831EF
:100A8000088070470648A0300068C0B2704705482B
:100A90000830008840F002000249083108807047A1
:100AA00004860D422C6C0040002044490860091D5A
:100AB0000860091D0860091D086041483F4914315C
:100AC0000860704700213D498279002A3AD00A46E1
:100AD000126803689A430B461A600A1D126803687D
:100AE0009A430B1D1A60027911440A6803681A437D
:100AF0000A60324A0832126803689A432F4B08335F
:100B00001A601A1D126803689A432C4B0C331A6042
:100B10004279102A0ED11A1F126803681A43274B14
:100B200008331A601A1D126803681A43234B0C33EA
:100B30001A600DE02149427911440A6803681A439A
:100B40000A6005E0027911440A6803689A430A6062
:100B500070470021016001710C21417100218171F8
:100B600070471649103109680143144A1032116068
:100B7000704701460020114A143212680A400AB137
:100B8000012000E0002070470C49143108607047D4
:100B9000014600200022094B1B6803EA0102074BB3
:100BA00014331B680B4013B10AB1012000E0002090
:100BB000704702491431086070470000000401408A
:100BC000FFFF0F0010B50446CC48844208D1012134
:100BD000042000F093FB0021042000F08FFB46E08E
:100BE000C748844208D10121082000F087FB00217A
:100BF000082000F083FB3AE0C248844208D101217A
:100C0000102000F07BFB0021102000F077FB2EE08D
:100C1000BD48844208D10121202000F06FFB002153
:100C2000202000F06BFB22E0B848844208D101216B
:100C3000402000F063FB0021402000F05FFB16E045
:100C4000B348844208D10121802000F057FB0021E5
:100C5000802000F053FB0AE0AE48844207D1012116
:100C6000801500F04BFB0021A01500F047FB10BDE4
:100C700010B50121084600F041FB0021012000F0E1
:100C80003DFB10BD2DE9F041024600250026002065
:100C900000230024002791F803C00CF00F0591F801
:100CA00003C00CF0100CBCF1000F03D091F802C08F
:100CB0004CEA050591F800C0BCF1000F31D0146872
:100CC00000202BE04FF0010C0CFA00F3B1F800C04B
:100CD0000CEA03069E4220D183004FF00F0C0CFA61
:100CE00003F7BC4305FA03FC4CEA040491F803C083
:100CF000BCF1280F06D14FF0010C0CFA00FCC2F831
:100D000014C00AE091F803C0BCF1480F05D14FF0C0
:100D1000010C0CFA00FCC2F810C0401C0828D1D30A
:100D20001460B1F800C0BCF1FF0F34DD546800203E
:100D30002EE000F1080C4FF0010808FA0CF3B1F8AE
:100D400000C00CEA03069E4221D183004FF00F0C35
:100D50000CFA03F7BC4305FA03FC4CEA040491F8CF
:100D600003C0BCF1280F05D100F1080C08FA0CF8FB
:100D7000C2F8148091F803C0BCF1480F07D100F10C
:100D8000080C4FF0010808FA0CF8C2F81080401C5B
:100D90000828CED35460BDE8F0814FF6FF71018082
:100DA000022181700421C1707047024600209368BF
:100DB0000B400BB1012000E000207047014688681D
:100DC00080B2704702460020D3680B400BB101206F
:100DD00000E0002070470146C86880B2704701619A
:100DE0007047416170470AB1016100E0416170479D
:100DF000C16070474FF480320A4382618161826131
:100E000082698269704702460020434B18684FF69A
:100E10008073184040EA021008433F4B1860704747
:100E20003E49C8617047F0B50A46002300240021FE
:100E3000002500F00046B6F1004F02D1364EF169B0
:100E400001E0354E7168C0F3034583B200F44016EB
:100E5000B6F5401F08D121F070612F4E766826F05C
:100E600070662D4F7E6012E000F48016B6F5801F8C
:100E700006D1032606FA05F4A14341F0706106E0AD
:100E8000460D360103FA06F6B14341F0706122B116
:100E9000460D360103FA06F6314300F00046B6F17E
:100EA000004F02D11C4EF16101E01B4E7160F0BD9C
:100EB00030B500228B071C0F0F2303FA04F2164BE8
:100EC00008338C1053F824309343134C08348D109E
:100ED00044F8253023468C1053F824308C07240F17
:100EE00000FA04F423430C4C08348D1044F82530E8
:100EF00030BD0A49DC31086070470000000801403D
:100F0000000C014000100140001401400018014095
:100F1000001C014000200140000001400000204270
:100F200010B50121080700F0F6F900214FF08050BC
:100F300000F0F1F910BD2A4908627047284908619C
:100F4000704701460020274A106820F0E00008435F
:100F5000106070472249A0310860704710B5024602
:100F60000020204B186820F00300104318601E4B2F
:100F70001B6843F004031C4C2360012901D130BFDE
:100F800000E020BF184B1B6823F00403164C2360BD
:100F900010BD1448006840F004001249086008467B
:100FA000006840F0020008600F48006840F004004C
:100FB0000D49086000BF00BF30BF704701460020E8
:100FC000084A52680A400AB1012000E00020704738
:100FD0000449096841EA8001024A11607047000033
:100FE00000000E420070004010ED00E0DF48006895
:100FF00040F00100DD49086008464068DC490840CF
:10100000DA49486008460068DA490840D74908606C
:101010000846006820F4802008600846406820F4F4
:10102000FE0048604FF41F0088607047CF49096890
:1010300021F48031CD4A11601146096821F48021E4
:101040001160B0F5803F03D0B0F5802F0ED106E0DF
:10105000C649096841F48031C44A116007E0C349B8
:10106000096841F4A021C14A116000E000BF00BF3F
:10107000704710B501460022002300204A11012AC2
:1010800002D1BA4C236806E0022A02D1B74C236A87
:1010900001E0B64C636A01F01F02012494401C4039
:1010A0000CB1012000E0002010BD38B500200090F8
:1010B0000024002500BF3120FFF7DBFF0546009824
:1010C000401C00900098B0F5A06F01D0002DF2D028
:1010D0003120FFF7CEFF08B1012400E000242046B4
:1010E00038BD01460020A14A106820F0F80040EA0F
:1010F000C10010607047A049086070470246002098
:101100009A4B586820F47C1042EA01031843974B2D
:101110005860704798490866704701460020934A16
:10112000506820F003000843506070478F484068C3
:1011300000F00C007047014600208C4A506820F0F7
:10114000F00008435060704701460020874A50680D
:1011500020F4E06008435060704701460020834A55
:10116000506820F4605040EAC1005060704729B1D7
:101170007E4A527A02437D4B5A7204E07B4A527A8D
:1011800082437A4B5A7270477B49D8310860704766
:1011900001460020754A506820F4404008435060E2
:1011A00070470021714A20321170704A82F8201075
:1011B000012802D004280AD104E001216B4A203220
:1011C000117005E00521694A2032117000E000BF6E
:1011D00000BF70476949086070476449096A014364
:1011E000624A11627047654944390860704730B5FA
:1011F00000210022002400235C4D6D6805F00C01E5
:1012000021B1042905D0082923D105E05C4D0560F2
:1012100022E05B4D05601FE0544D6D6805F47012CF
:10122000524D6D6805F48034022505EB92421CB9DD
:10123000544D554305600BE04C4D6D6805F4003589
:101240001DB1504D5543056002E04D4D55430560BD
:1012500002E04B4D056000BF00BF444D6D6805F0D6
:10126000F0010909484D6B5C0568DD4045603F4D64
:101270006D6805F4E061090A434D6B5C4568DD402B
:1012800085603A4D6D6805F46051C90A3E4D6B5C4E
:101290004568DD40C560354D6D6805F44041890BFA
:1012A0003A4D6B5CC568B5FBF3F5056130BD29B1FE
:1012B0002E4A526902432D4B5A6104E02B4A52696F
:1012C00082432A4B5A61704729B1284A92690243E6
:1012D000264B9A6104E0254A92698243234B9A6126
:1012E000704729B1214AD2690243204BDA6104E0F8
:1012F0001E4AD26982431D4BDA61704729B11B4AED
:10130000D2680243194BDA6004E0184AD26882437B
:10131000164BDA60704729B1144A12690243134B25
:101320001A6104E0114A12698243104B1A61704736
:1013300012494039086070470F49C86470470B492B
:10134000C87170470948406A40F080700749486298
:10135000704701460020054A92680A400AB1012000
:1013600000E0002070470149887270470010024079
:101370000000FFF8FFFFF6FE0000424280044242F8
:1013800000127A0000093D00D4000020E400002093
:1013900010B50446FE48844208D10121C014FFF76D
:1013A000ADFF0021E014FFF7A9FFC4E0B4F1804FC6
:1013B00008D101210846FFF7AEFF00210120FFF709
:1013C000AAFFB8E0F348844208D101210220FFF7C8
:1013D000A2FF00210220FFF79EFFACE0EE4884420E
:1013E00008D101210420FFF796FF00210420FFF718
:1013F00092FFA0E0E948844208D101210820FFF7CC
:101400008AFF00210820FFF786FF94E0E448844229
:1014100008D101211020FFF77EFF00211020FFF7E7
:101420007AFF88E0DF48844208D101212020FFF7BD
:1014300072FF00212020FFF76EFF7CE0DA48844233
:1014400008D101214014FFF759FF00216014FFF774
:1014500055FF70E0D548844209D10121C804FFF747
:101460004DFF00214FF40020FFF748FF63E0D04814
:10147000844209D101210805FFF740FF00214FF404
:101480008010FFF73BFF56E0CA48844209D1012192
:101490004805FFF733FF00214FF40010FFF72EFF40
:1014A00049E0C548844208D101214020FFF733FFBD
:1014B00000214020FFF72FFF3DE0C048844208D1C3
:1014C00001218020FFF727FF00218020FFF723FF65
:1014D00031E0BB48844208D101218015FFF71BFF92
:1014E0000021A015FFF717FF25E0B648844209D177
:1014F00001210804FFF702FF00214FF48030FFF7BD
:10150000FDFE18E0B048844209D101214804FFF7EC
:10151000F5FE00214FF40030FFF7F0FE0BE0AB4882
:10152000844208D101218804FFF7E8FE00214FF42E
:101530008020FFF7E3FE10BD00220288944B984202
:101540000ED0994B98420BD0B0F1804F08D0914B00
:10155000984205D0904B984202D0904B984204D1CB
:101560004FF68F731A404B881A438D4B984207D021
:101570008C4B984204D04FF6FF431A40CB881A4355
:1015800002808B8883850B880385814B98420BD022
:10159000854B984208D08B4B984205D08A4B984295
:1015A00002D08A4B984201D10B7A038601238382B1
:1015B000704770B5002400220023058C4FF6FE769C
:1015C00035400584028C8388048B4FF68F752C4040
:1015D000B51E2C400D882C43751E2A400D892A43C8
:1015E0004D882A436A4DA8420BD06F4DA84208D0BF
:1015F000744DA84205D0744DA84202D0734DA84244
:1016000013D14FF6F7752A404D892A434FF6FB75E3
:101610002A408D882A434FF6FF652B404FF6FF5531
:101620002B408D892B43CD892B4383800483CD8828
:101630008586028470BD70B5002400220023058CCD
:101640004FF6EF7635400584028C8388048B48F68C
:10165000FF752C404FF6FF452C400D884FF6FF7666
:1016600006EA05252C434FF6DF752A400D8906EA68
:1016700005152A434D8806EA05152A43444DA8421C
:1016800002D0494DA8421DD14FF67F752A404D89A1
:101690004FF6FF7606EA05152A434FF6BF752A4036
:1016A0008D8806EA05152A434FF6FF352B404FF289
:1016B000FF752B408D8906EA85052B43CD8906EA07
:1016C00085052B4383800483CD880587028470BD04
:1016D00070B5002400220023058C4FF6FF663540CC
:1016E0000584028C8388848B4FF68F752C404FF6CF
:1016F000FC752C400D882C434FF6FF552A400D8970
:101700004FF6FF7606EA05252A434D8806EA0525A9
:101710002A431F4DA84202D0234DA8421DD14FF2AB
:10172000FF752A404D894FF6FF7606EA05252A43C4
:101730004FF6FF352A408D8806EA05252A434EF6E6
:10174000FF752B404DF6FF752B408D8906EA051578
:101750002B43CD8906EA05152B4383808483CD88EE
:101760008587028470BD70B5002200230024058C9B
:101770004EF6FF7635400584038C8488828B48F6CC
:10178000FF752A404FF6FF452A400D8820E00000F3
:10179000002C01400004004000080040000C004004
:1017A000001000400014004000340140004C014093
:1017B000005001400054014000180040001C00404F
:1017C000002000400040014000440140004801402A
:1017D0004FF6FF7606EA05252A434DF6FF752B40A6
:1017E0000D8906EA05352B434D8806EA05352B435E
:1017F000FA4DA84202D0FA4DA84208D14BF6FF7527
:101800002C408D894FF6FF7606EA85152C4384809F
:101810008283CD88A0F84050038470BD828B4FF244
:10182000FF331A408283828B4FF6FF7303EA012352
:101830001A4382837047F0B50C46154600220021FA
:101840000026078C4EF6FF7C07EA0C070784828B84
:10185000018C4FF6FF7707EA043640F6FF473A401F
:101860004FF6FF7707EA05273A434FF6FF7707EA77
:1018700003373A43D94FB8420ED0D94FB8420BD0B4
:10188000B0F1804F08D0D74FB84205D0D64FB842FC
:1018900002D0D64FB84206D14DF6FF77394046F414
:1018A0008057394305E047F6FF57394044F48057E5
:1018B000394382830184F0BD828B4FF6F3731A4063
:1018C0008283828B0A4382837047F0B50C461546AB
:1018D000002200210026078C4FF6FF6C07EA0C0758
:1018E0000784828B018C4FF6FF7707EA04264FF6B8
:1018F0000C773A404FF6FF7707EA03172F433A4336
:10190000B64FB8420ED0B64FB8420BD0B0F1804FB0
:1019100008D0B44FB84205D0B34FB84202D0B34F4D
:10192000B84206D14FF6FF57394046F48077394325
:1019300005E04FF2FF57394044F480773943828302
:101940000184F0BD028B4FF2FF331A400283028BF9
:101950004FF6FF7303EA01231A4302837047F0B581
:101960000C461546002200210026078C4FF6EF7C1E
:1019700007EA0C070784028B018C4FF6FF7707EA12
:10198000041640F6FF473A404FF6FF7707EA033761
:101990003A434FF6FF7707EA05273A438F4FB8429D
:1019A0000ED08F4FB8420BD0B0F1804F08D08D4F82
:1019B000B84205D08C4FB84202D08C4FB84206D105
:1019C0004FF6DF77394046F01007394305E04FF610
:1019D0005F77394044F01007394302830184F0BD3A
:1019E000028B4FF6F3731A400283028B0A43028381
:1019F0007047F0B50C46154600220021068C4FF6C4
:101A0000FE773E400684028B018C4FF60C76324006
:101A10007E1C06EA03162E433243704EB0420ED0AF
:101A20006F4EB0420BD0B0F1804F08D06D4EB04237
:101A300005D06D4EB04202D06C4EB04206D14FF68A
:101A4000FD76314044F00106314305E04FF6F5766E
:101A5000314044F00106314302830184F0BD70B58A
:101A600005460C465D4885420ED05D4885420BD048
:101A7000B5F1804F08D05B48854205D05A48854271
:101A800002D05A48854200D100E000BF208850B9FA
:101A90002389A28861882846FFF7ABFFE1882846A2
:101AA000FFF79EFF25E0208804280AD12389A28819
:101AB00061882846FFF753FFE1882846FFF742FF79
:101AC00017E0208808280AD12389A288618828463F
:101AD000FFF7FBFEE1882846FFF7EEFE09E02389C9
:101AE000A28861882846FFF7A6FEE1882846FFF70E
:101AF00095FE70BD2DE9F04105460C4600260127F4
:101B0000608808B9022600E00026A088012801D1DB
:101B1000022700E001272088A0B92389A2886188D4
:101B20002846FFF766FFE1882846FFF759FF23891B
:101B30003A4631462846FFF712FFE1882846FFF76C
:101B400001FF13E02389A28861882846FFF707FF79
:101B5000E1882846FFF7F6FE23893A4631462846B3
:101B6000FFF747FFE1882846FFF73AFFBDE8F0811D
:101B70000A884B881A438B881A43CB881A430B89EF
:101B80001A434B891A438B891A43A0F844207047A3
:101B90004FF6FF71818000210180C1804180017278
:101BA00070470021018041808180C1800181418195
:101BB0008181C181704700210180418001218180A4
:101BC0000021C18001817047002101804180818016
:101BD000C18001814181818170470000002C01405A
:101BE000003401400004004000080040000C0040A8
:101BF00021B1028842F00102028004E002884FF61F
:101C0000FE731A400280704731B1B0F8442042F4AC
:101C10000042A0F8442005E0B0F84420C2F30E02D0
:101C2000A0F8442070471AB183890B43838102E0F6
:101C300083898B43838170478182704741EA020325
:101C4000A0F8483070471AB183890B43838102E0C2
:101C500083898B438381704701894FF6F872114065
:101C6000018170470A46002101894FF68F731940A0
:101C700011430181704730B504460D462946204680
:101C8000FFF7F0FF208940F00700208130BD2DE9EB
:101C9000F04104460D4616461F46602D06D13B46D0
:101CA000012231462046FFF75AFE05E03B4601225D
:101CB00031462046FFF79DFE29462046FFF7D2FF1A
:101CC000208940F007002081BDE8F08130B50C4646
:101CD00000210189C9B24FF6FF7505EA03251543B6
:101CE00025432943018130BD2DE9F04105460E46CB
:101CF00017469846002443463A4631462846FFF7A1
:101D0000E5FF2C894FF6F870044044F007044FF6C5
:101D10008F70044044F070042C81BDE8F081F0B570
:101D200004460D4616461F463B4632462946204687
:101D3000FFF7CCFF208940F480402081F0BD018571
:101D4000828270470A46002101884FF68F7319403E
:101D5000114301807047F0B50C4615461E46002120
:101D6000002200230189028B038C4FF6F87739405B
:101D700021434FF6FC473A4040F201173A434FF6F1
:101D8000DD773B404FF6FF7707EA06172F433B43CB
:101D9000018102830384F0BD0A460021018B4FF6C6
:101DA0008F7319401143018370470A460021018B4C
:101DB00048F6FF7319404FF6FF7303EA02231943F5
:101DC000018370470A460021818B4FF68F731940BB
:101DD0001143818370470A460021818B48F6FF73C7
:101DE00019404FF6FF7303EA0223194381837047BA
:101DF00021B1028842F08002028004E002884FF69E
:101E00007F731A400280704721B1828842F0040239
:101E1000828004E082884FF6FB731A40828070470C
:101E200021B1828842F00802828004E082884FF665
:101E3000F7731A408280704721B1828842F0010214
:101E4000828004E082884FF6FE731A4082807047D9
:101E50000A460021018B4FF6F773194011430183A5
:101E600070470A460021018B4FF2FF7319404FF66D
:101E7000FF7303EA02231943018370470A460021D6
:101E8000818B4FF6F77319401143818370470A46DF
:101E90000021818B4FF2FF7319404FF6FF7303EA65
:101EA00002231943818370470A460021018B4FF6B4
:101EB000FB7319401143018370470A460021018BCF
:101EC0004FF6FF3319404FF6FF7303EA022319431D
:101ED000018370470A460021818B4FF6FB7319403E
:101EE0001143818370470A460021818B4FF6FF33EF
:101EF00019404FF6FF7303EA0223194381837047A9
:101F00000A460021018B4FF67F731940114301836C
:101F100070470A460021018BC1F30E014FF6FF7393
:101F200003EA02231943018370470A460021818B8B
:101F30004FF67F7319401143818370470A46002191
:101F4000818BC1F30E014FF6FF7303EA022319439D
:101F5000818370470A460021018C4FF6FD731940BA
:101F60001143018470470A460021018C4FF6F77334
:101F700019401143018470470A460021018C4FF635
:101F8000DF7319404FF6FF7303EA0213194301840C
:101F900070470A460021018C4FF67F7319404FF6B7
:101FA000FF7303EA02131943018470470A460021B4
:101FB000018C4FF6FF5319404FF6FF7303EA0223DB
:101FC0001943018470470A460021018C4FF2FF73C8
:101FD00019404FF6FF7303EA022319430184704747
:101FE0000A460021018C4DF6FF7319404FF6FF732E
:101FF00003EA023319430184704730B500230124FA
:102000008C40A3B2048C9C430484048C02FA01F536
:10201000ADB22C43048430BD30B5002304248C4081
:10202000A3B2048C9C430484048C02FA01F5ADB283
:102030002C43048430BD70B50346002000241846AC
:10204000183001258D40ACB21D8CA5431D8409B10B
:10205000082909D100EB6100056825F070050560CD
:102060000568154305600EE00D1FC5F34E052844B5
:10207000056825F4E045056005684FF6FF7606EA39
:1020800002263543056070BD21B1028842F002028C
:10209000028004E002884FF6FD731A400280704708
:1020A00021B1028842F00402028004E002884FF667
:1020B000FB731A400280704721B1828842F080028F
:1020C000828004E082884FF67F731A4082807047D6
:1020D00002884FF6F7731A40028002880A43028092
:1020E000704782884FF68F731A40828082880A4335
:1020F0008280704702894FF6F8731A400281028984
:102100000A430281704702894FF67F731A400281A9
:1021100002890A4302817047818470478185704734
:10212000818670470187704781877047A0F840100B
:10213000704702884FF6FF431A40028002880A4324
:10214000028070470146888E70470146088F7047AD
:102150000146888F70470146B1F84000704701463C
:10216000888C70470146088D704702460020138A0C
:102170000B400BB1012000E000207047CA430282EF
:10218000704730B50246002000230024158A05EA76
:102190000103958905EA010413B10CB1012000E0A7
:1021A000002030BDCA4302827047000010B50446CB
:1021B000FB48844209D101218803FFF79FF80021E1
:1021C0004FF48040FFF79AF832E0F648844209D194
:1021D00001214804FFF79FF800214FF40030FFF77A
:1021E0009AF825E0F048844209D101218804FFF7DC
:1021F00092F800214FF48020FFF78DF818E0EB48AB
:10220000844209D10121C804FFF785F800214FF469
:102210000020FFF780F80BE0E548844208D1012157
:102220000805FFF778F800214FF48010FFF773F8E6
:1022300010BD2DE9F04786B005460E460024A246A3
:1022400000BFA1460027B08900B100BF2F462C8AED
:102250004CF6FF700440F08804432C82AC894EF6A3
:10226000F3100440B088318908437189084304435E
:10227000AC81AC8A4FF6FF400440B0890443AC8285
:1022800001A8FEF7B4FFC648874202D1DDF810A0CE
:1022900001E0DDF80CA0A88900F4004040B10AEB91
:1022A000CA0000EB0A1031684900B0FBF1F807E002
:1022B0000AEBCA0000EB0A1031688900B0FBF1F8A4
:1022C0006420B8FBF0F004012009642101FB1089AF
:1022D000A88900F4004040B1322000EBC900B0FBF7
:1022E000F1F000F00700044308E0322000EB091091
:1022F0006421B0FBF1F000F00F0004432C8106B024
:10230000BDE8F0874FF41651016000218180C18043
:1023100001810C21418100218181704710B5024665
:102320000020108A4FF2FF0318400B884C8823438B
:102330008C882343CC8823431843108210BD00218E
:10234000018041808180C180704721B1828942F43F
:102350000052828104E082894DF6FF731A40828127
:102360007047F0B50346002400260025002040F603
:102370006A17B94200D100BF1846C1F3421401F0F8
:102380001F06012707FA06F5012C01D10C3004E0E5
:10239000022C01D1103000E014301AB107682F432D
:1023A000076002E00768AF430760F0BD1AB1838A97
:1023B0000B43838202E0838A8B4383827047028AC5
:1023C0004FF6F0731A400282028A0A430282704773
:1023D00082894FF2FF731A40828182890A43828187
:1023E000704721B1828942F00202828104E0828931
:1023F0004FF6FD731A4082817047028A4FF6DF73F1
:102400001A400282028A0A430282704721B1028A7C
:1024100042F48042028204E0028A4BF6FF731A40C3
:1024200002827047C1F308028280704701468888A3
:10243000C0F308007047818941F001018181704734
:10244000028BD2B20283028B42EA012202837047DE
:10245000028B02F47F420283028B0A43028370479D
:1024600021B1828A42F02002828204E0828A4FF601
:10247000DF731A408282704721B1828A42F01002D3
:10248000828204E0828A4FF6EF731A40828270479C
:1024900021B1828A42F00802828204E0828A4FF6E9
:1024A000F7731A408282704721B1828942F4004258
:1024B000828103E08289C2F30E028281704721B1DA
:1024C000828A42F40062828204E0828A4FF2FF73C1
:1024D0001A4082827047828A4FF6FB731A408282CA
:1024E000828A0A438282704721B1828A42F00202C4
:1024F000828204E0828A4FF6FD731A40828270471E
:1025000002460020B1F5007F00D100BF13880B40C8
:102510000BB1012000E00020704701F40072B2F519
:10252000007F00D100BFCA430280704770B50246E9
:10253000002400230025002040F66A16B14200D195
:1025400000BFC1F3421501F01F03012606FA03F391
:10255000012D02D19689334006E0022D02D1168A60
:10256000334001E0968A33400C12012606FA04F447
:102570001688344013B10CB1012000E0002070BD7A
:1025800010B50022002340F66A14A14200D100BF1A
:102590000A1201249440A3B2DC43048010BD000061
:1025A000003801400044004000480040004C00401A
:1025B0000050004010B56FF00400FDF7CCFF2E482E
:1025C00000682E49B0FBF1F02D49087008460078EC
:1025D00000EB4001C1EBC0104FF6FF7101EAC000F3
:1025E0002849088010BD0146254A12784A434FF019
:1025F000E0235A6100229A611A46126942F00102F0
:102600001A6100BF4FF0E022106900F001021AB118
:1026100000F48032002AF5D04FF0E022126922F057
:1026200001024FF0E0231A6100229A6170470146CF
:10263000144A12884A434FF0E0235A6100229A61FB
:102640001A46126942F001021A6100BF4FF0E022FF
:10265000106900F001021AB100F48032002AF5D0AE
:102660004FF0E022126922F001024FF0E0231A61DC
:1026700000229A61704700000000002000127A00DA
:10268000E8000020EA000020A34A0A400243A34BCE
:102690001A6070470146072323EA010212029F4B8A
:1026A0001B1D18684FF6FF0318409D4B184310433D
:1026B0009A4B1B1D186070472DE9F041074688466C
:1026C00014461D462846FFF7E5FFC5F1040007FA4A
:1026D00000F60F20284100EA0800064306F00F0626
:1026E000E21704EBD2625211920002F1E022D2F81A
:1026F00000212146E31704EBD3635B11A4EB431CD9
:10270000012303FA0CF31A432046E31704EBD363C7
:102710005B119B0003F1E023C3F800218148005DB9
:1027200040EA06107F490855BDE8F08170B50446BF
:102730000B46CE1701EB9676C6F38700CE1701EB5A
:102740009676B610A1EB8606B606350E764B9B69DB
:1027500043F00103744EB3614FEAB63353F82030AF
:102760000F26AE40B343714E46F82030334653F83F
:10277000203004FA05F61E436C4B43F820606C4B86
:102780001B6801268E403343694E336002F001031B
:1027900043B1674B0C331B6801268E403343644EB4
:1027A0000C36336002F0020343B1614B08331E68FC
:1027B00001238B401E435E4B08331E6070BD00B585
:1027C000002059490861C8601420486100208861D0
:1027D000C8610846006840F001000860084640688B
:1027E000544908405049486008460068524908402A
:1027F0004D4908600846006820F4802008600846BB
:10280000406820F4FE0048600020886000214FF0FE
:102810000060FFF739FF00BD10B540480830006880
:1028200040F004003D49083108603F48C06940F06D
:1028300080503D49C8614148406840F480703F493C
:1028400048600846006840F00400086008460068D8
:1028500040F002000860FDF7BBFC10BD3048001DD1
:102860002E49091D08607047014649062E4A9269A3
:1028700042F001022C4B9A612C4A083A526822F02D
:10288000E0622A4B083B5A601A4652680A435A6073
:10289000704730B504460025FFF791FF22480068D5
:1028A00040F480302049086000BF1F480068400C99
:1028B0000028FAD04FF480601B494860A01EC4B2C3
:1028C0000846406840EA844048600846406840F452
:1028D000803048601A48006840F0320018490860AB
:1028E0001148006840F080700F49086000BF0E4832
:1028F0000068400E0028FAD00B48406840F0020003
:102900000949486005E008484068C0F3870505F0BC
:102910000305022DF7D130BD80FFFF1F08ED00E059
:102920000000FA0500E400E0001002400800014049
:10293000000401400000FFF8FFFFF6FE00700040B9
:102940000020024000BF70472C4A12785AB900BFDD
:102950002B4A128802F04002002AF9D0C2B2284B5A
:102960001B1D1A800AE000BF264A128802F04002AE
:10297000002AF9D0C2B2234B1B1D1A80704710B534
:1029800086B00446012144F20400FEF79DFC4FF49A
:102990000070ADF8140003208DF8160018208DF893
:1029A000170005A91848FEF76DF94FF48060ADF8DF
:1029B000140004208DF8170005A91348FEF762F9EA
:1029C00001940020ADF80800ADF80A00ADF80C0045
:1029D000ADF810000C20ADF80E0001A90948FFF772
:1029E00028FC002240F225510648FFF7BAFC0121DD
:1029F0000448FFF7AAFC06B010BD00001B00002031
:102A000000480040003801400008014008B501219D
:102A10000420FEF759FC1020ADF800008DF80300EB
:102A200003208DF8020069460C48FEF72BF908BD1B
:102A300018B900210A4A11600FE00A490968491CC7
:102A4000084A1160814208D105490968C943064A0C
:102A5000C2F890110021034A11607047000801403C
:102A600090012142F00000200000214208B5012120
:102A70000420FEF729FC2020ADF8000048208DF846
:102A8000030069464B48FEF7FDF808BD01464A4879
:102A9000006828B949480088401C484A108002E074
:102AA0000020464A10804448006828B9444800780D
:102AB00010B90120424A107042480078B0B940482D
:102AC0000078012807D140480078401C3E4A107029
:102AD00001203C4A10703C480078022806D10020B2
:102AE000394A1070394A1080022070473248006815
:102AF000012804D10020324A1070324A1070324846
:102B0000007801281CD131480088401C2F4A1080D1
:102B10001046008888420ADD28480088884206DA84
:102B20000020294A1070294A10800120DDE723483F
:102B30000088884204DD0020234A1070234A108058
:102B40000020D2E72248007838B11B48006820B93D
:102B500000201F49087001207047174800680128AD
:102B600001D11B4908700020F6E71A48008840B9D7
:102B70001148006828B918480088401C1649088088
:102B800002E000201449088013480088C82807DDA7
:102B900001201049088000200F490880012070475B
:102BA0000C480088012802D100200A490880002032
:102BB000F5E700000008014014012142FA0000205E
:102BC000F4000020F5000020F6000020F8000020AE
:102BD000FC00002000010020FE00002010B50A4685
:102BE0001AB10123FE4C236002E00023FC4C236059
:102BF000002114E00023FB4C236000F080031BB194
:102C00000123241F236003E00023F64C241F2360CC
:102C10000123F44C23604306180E4B1CD9B208293B
:102C2000E8DB0123EE4C236010BD30B500241CE02E
:102C300004F1B001C8B20021FFF7D0FF002108461F
:102C4000FFF7CCFF00211020FFF7C8FF002508E0A8
:102C5000E54901EBC501085D0121FFF7BFFF681CD5
:102C6000C5B2802DF4DB601CC4B2082CE0DB30BDA3
:102C700000B500218D20FFF7B1FF00211420FFF7E0
:102C8000ADFF0021AF20FFF7A9FF00BD00B5002177
:102C90008D20FFF7A3FF00211020FFF79FFF0021E9
:102CA000AE20FFF79BFF00BD30B500240CE00025EF
:102CB00006E00020CC4901EBC5010855681CC5B2EF
:102CC000802DF6DB601CC4B2082CF0DBFFF7ADFFF3
:102CD00030BDF0B5144600267F2801DC3F2900DD19
:102CE000F0BD0B46CF1701EB5777FF10C7F1070771
:102CF000FAB2CF1701EB5777FF10A1EBC707FDB270
:102D0000C5F107070123BB40DEB24CB1B64B03EB64
:102D1000C0039B5C3343B44F07EBC007BB5408E0D0
:102D2000B14B03EBC0039B5CB343AF4F07EBC00752
:102D3000BB5400BFD4E72DE9F04F80460C46154642
:102D40001E46A346A5F12000C5B200273EE00C2E8A
:102D500007D105EB4500A54901EB800010F807906D
:102D600004E0A34800EB051010F807904FF0000AAC
:102D700026E009F0800028B121464046099AFFF775
:102D8000A8FF09E0099808B9012000E000200246E8
:102D900021464046FFF79DFF4FEA49604FEA106920
:102DA000601CC4B2A4EB0B00B04205D15C4608F134
:102DB000010000F0FF0806E00AF1010000F0FF0A40
:102DC000BAF1080FD5DB00BF781CC7B2B742BEDB33
:102DD000BDE8F08F10B50246012000E050430B1E05
:102DE000A1F10104E1B2F9D110BD2DE9FF4F81B08D
:102DF000074691461E460E9D4FF0000A002439E01A
:102E0000301B401EC1B20A20FFF7E4FFB9FBF0F00F
:102E10000A21B0FBF1F201FB1208BAF1000F16D142
:102E2000701EA04213DDB8F1000F0ED10120AB4699
:102E300005EBDB71491001FB04710090C8B22B4611
:102E400020220299FFF777FF12E04FF0010A0120DC
:102E5000AB4605EBDB71491001FB04710090C8B271
:102E600008F13001CAB22B460299FFF764FF00BF98
:102E7000601CC4B2B442C3DB05B0BDE8F08F78B5C6
:102E800005460E46144618E07A2D03DD002506F1AE
:102E90001000C6B23A2E04DD002005460646FFF7B4
:102EA00003FF0120009022780C2331462846FFF7CB
:102EB00042FF05F10800C5B2641C20780028E3D168
:102EC00078BD08B501210820FEF7FEF93820ADF8DD
:102ED000000010208DF8030002208DF802006946E2
:102EE0004448FDF7CFFE01210420FEF7EDF94FF431
:102EF0000040ADF8000002208DF8020010208DF88F
:102F0000030069463C48FDF7BDFE0120FEF713F8BB
:102F10000020FEF746F90020FDF76FFD0020FEF7C8
:102F20000AF800202F49083908606420FFF77FFB6A
:102F300001203249C1F88C010021AE20FFF74EFE7E
:102F40000021D520FFF74AFE00215020FFF746FE62
:102F50000021A820FFF742FE00213F20FFF73EFEA0
:102F60000021D320FFF73AFE00210846FFF736FE86
:102F700000214020FFF732FE00218D20FFF72EFEBA
:102F800000211420FFF72AFE00212020FFF726FE53
:102F900000210220FFF722FE0021A120FFF71EFEE4
:102FA0000021C020FFF71AFE0021DA20FFF716FEED
:102FB00000211220FFF712FE00218120FFF70EFEF4
:102FC0000021EF20FFF70AFE0021D920FFF706FEBF
:102FD0000021F120FFF702FE0021DB2010E00000BD
:102FE000BC01214294812142A804002046DC000853
:102FF000BAE00008000C01400008014000802142B6
:10300000FFF7ECFD00213020FFF7E8FD0021A420B0
:10301000FFF7E4FD0021A620FFF7E0FD0021AF202F
:10302000FFF7DCFDFFF740FE08BDF0B506460D4694
:10303000174600243A4629463046FFF74AFE3A46EC
:1030400029463046FFF745FE00BF07E02819C1B208
:103050003A463046FFF73DFE601CC4B2082CF5DB53
:10306000F0BD30B5002410E0094830F814000949DB
:103070000978884201DA012500E000252A4600216E
:103080002046FFF7D2FF601CC4B2802CECDB30BDC1
:10309000A803002032000020002000E0401C0A2885
:1030A000FCDB704710B50446072301222146AC48DB
:1030B000FDF72FFB0121AA48FDF7FFFA00BF02210F
:1030C000A748FDF76BFC0028F9D0A548FDF788FB61
:1030D00010BD70B5002400250020A2490860A24957
:1030E000C1F88401FFF7D8FF0120A0490860FFF76D
:1030F000D3FF00209E49C1F88401FFF7CDFF0120D6
:1031000098490860FFF7C8FF00209749C1F884017B
:10311000FFF7C2FF00BF15E0002092490860FFF7EB
:10312000BBFF0220FFF7BEFF0011924921F81500F6
:10313000681CC5B201208E49C1F88401FFF7ACFFBD
:10314000601CC4B2802CE7DB70BD00B587B00121E4
:103150004FF40270FEF7B8F84FF40040FEF718F88D
:103160000120ADF8040000208DF8070001A9824875
:10317000FDF788FD7A48FDF70DFA002002908DF8E2
:103180000C008DF80D004FF4602004900020059095
:1031900001208DF8180002A97148FDF722FA0121DB
:1031A0006F48FDF74AFA6E48FDF769FA00BF6C48B0
:1031B000FDF76AFA0028FAD16948FDF76FFA00BFF7
:1031C0006748FDF770FA0028FAD107B000BD10B5C6
:1031D0000820FFF767FF0446204610BD00B587B002
:1031E00001210C20FEF770F801214802FEF76CF86F
:1031F0004FF40040FDF7CCFF01216048FDF713FEBE
:103200000220ADF8040010208DF8070002208DF890
:10321000060001A95848FDF735FD0220ADF804006D
:1032200010208DF8070002208DF8060001A95448EF
:10323000FDF728FD0420ADF8040000208DF80700FC
:1032400001A94F48FDF71EFD4548FDF7A3F90020F1
:1032500002908DF80C008DF80D004FF46020049062
:103260000020059001208DF8180002A93C48FDF7C8
:10327000B8F901213A48FDF7E0F93948FDF7FFF9BF
:1032800000BF3748FDF700FA0028FAD13448FDF7AF
:1032900005FA00BF3248FDF706FA0028FAD10120EE
:1032A000FFF7C5F907B000BD00B587B001210C20BC
:1032B000FEF70AF801214802FEF706F84FF4004035
:1032C000FDF766FF0220ADF8040000208DF807002E
:1032D00001A92948FDF7D6FC0220ADF80400002022
:1032E0008DF8070001A92648FDF7CCFC0420ADF8B5
:1032F000040000208DF8070001A92148FDF7C2FC59
:103300001748FDF747F9002002908DF80C008DF862
:103310000D004FF4602004900020059001208DF8EE
:10332000180002A90E48FDF75CF901210C48FDF7D1
:1033300084F90B48FDF7A3F900BF0948FDF7A4F98C
:103340000028FAD10648FDF7A9F900BF0448FDF7A7
:10335000AAF90028FAD10120FFF769F907B000BDEA
:1033600000240140840121420080214284812142C5
:1033700000002142A8030020000C014000023000A0
:103380000008014030B585B005460C4601210846CD
:10339000FDF7A7FF01210420FDF796FF0220ADF8FD
:1033A000100028208DF8130003208DF8120004A9C6
:1033B0006748FDF767FC0820ADF8100010208DF875
:1033C000130003208DF8120004A96148FDF75AFC90
:1033D000ADF80850ADF804400020ADF80A00ADF893
:1033E000060001A94FF08040FEF7A6F804205949D5
:1033F000088000204880012088800020C880088143
:103400004FF08040FEF72BFB1C208DF800000120C0
:103410008DF801008DF802008DF803006846FDF775
:1034200050F8012205218807FEF7FDFB01218807DE
:10343000FEF7DEFB05B030BD10B50120464908603F
:103440000F20FFF7D0F800204449C1F88C01444810
:10345000007800F08000E8B14148007800F03F00BB
:103460004049086008460088000408600846006873
:103470003D49098808443B49086008460068AA217C
:1034800048434FF47A71B0FBF1F0364908600020F0
:103490003349088010BD4FF08041088A30490978CF
:1034A00001F0800100294DD100F00101D1B12C497A
:1034B000097801F04001A9B12949097801F03F01DB
:1034C0003F290AD12649098841F08001244A118008
:1034D0004FF6FF71244A118004E021490988491CF4
:1034E0001F4A118000F0040161B31D49097801F001
:1034F000400199B11A49098841F08001184A1180A8
:103500004FF08041098F184A11804FF08041098C9B
:1035100021F020014FF08042118413E00021104A75
:103520001180114A11800E49098841F040010C4A6E
:10353000118000214FF0804291841146098C41F0A6
:103540002001118400214FF0804211827047000059
:1035500000080140A80800208C01214200002142FF
:1035600002010020400000200401002008B50121D4
:103570000820FDF7A9FE4FF47040ADF800001020C0
:103580008DF8030003208DF8020069462A48FDF7F4
:1035900079FB08BD30B589B005460C46FFF7E6FF5C
:1035A0000121C802FDF790FE01210420FDF78CFEE9
:1035B0004FF41060ADF8200018208DF82300032090
:1035C0008DF8220008A91D48FDF75CFBADF81850E6
:1035D000ADF814400020ADF81A00ADF8160005A9AA
:1035E0001748FDF7A9FF6020ADF804000120ADF8F1
:1035F00006000020ADF80A00ADF80C0001A9104843
:10360000FDF7D7FF01A90E48FEF7ADF801210C48E0
:10361000FEF7FAFA08210A48FEF71AFC08210848C2
:10362000FEF735FC01210648FEF7E2FB01210448C4
:10363000FEF7DEFA09B030BD000C01400008014081
:10364000002C014000B587B001210220FDF749FEA2
:1036500001210420FDF738FEC020ADF80000042051
:103660008DF8030069466148FDF70CFB04A8FEF7DE
:103670008FFA0020ADF810004FF6FF70ADF814007F
:103680000020ADF81600ADF8120004A95848FDF767
:1036900053FF00231A4603215548FEF75CFB01A89F
:1036A000FEF789FA0A20ADF80C0001A95048FEF790
:1036B000D6F901214E48FEF761FD012211464C4822
:1036C000FEF7B1FA00214A48FEF726FD01214848DD
:1036D000FEF78EFA07B000BD00B587B001210420C7
:1036E000FDF7FFFD01210820FDF7EEFDC020ADF83C
:1036F000000004208DF8030069463E48FDF7C2FA39
:1037000004A8FEF745FA0020ADF810004FF6FF7050
:10371000ADF814000020ADF81600ADF8120004A9B1
:103720003548FDF709FF00231A4603213248FEF70A
:1037300012FB01A8FEF73FFA0A20ADF80C0001A920
:103740002D48FEF78CF901212B48FEF717FD0122C9
:1037500011462948FEF767FA00212748FEF7DCFCEE
:1037600001212548FEF744FA07B000BD01460229B1
:1037700004D003290BD004291BD111E04FF0804263
:10378000928C10B200224FF080439A8413E0184AC2
:103790002432128810B20022154B24331A800AE01A
:1037A000154A2432128810B20022134B24331A8097
:1037B00001E0002000BF00BF70470F4810300088B4
:1037C0000D481030008820F001000B4910310880AE
:1037D000704707481030008805481030008820F0F6
:1037E00001000349103108807047000000080140C3
:1037F00000040040000C01400008004008B5012111
:103800000820FDF761FD4FF44070ADF80000102076
:103810008DF8030003208DF802006946F748FDF794
:1038200031FA08BD10B5F548001D006820F0F00021
:10383000F249091D08600846006840F03000086041
:103840000120EF490860EF48D0F8240108B90020B2
:1038500010BD0120EA49091F0860FEF7C4FE0020E0
:10386000E849C1F8A401E6488038006808B10020A2
:10387000EEE70120FEF7B7FE0020E149091F0860CE
:103880000120E5E710B5DD48001D006820F0F000DC
:10389000DA49091D08600846006840F030000860F9
:1038A0000020D749091F0860D649C1F8A4010120AA
:1038B000FEF799FE0120D249091F0860D149C1F8DD
:1038C000A401FEF790FE10BD10B50024CB48001DEA
:1038D000006820F0F000C949091D0860084600682A
:1038E00040F0800008600120C5490860FEF77BFEBB
:1038F0000120C449C1F8A001FEF775FE0AE0601C72
:10390000C4B2322C03DDFFF7BDFF002010BD012043
:10391000FEF769FEBA48803800680028EFD1B84940
:10392000091F08600120F1E710B50020B449091F04
:103930000860B248001D006820F0F000AF49091D82
:1039400008600846006840F0300008600020AD497B
:10395000C1F8A4010120FEF746FE0120A849091F75
:103960000860FEF740FE0020A649C1F8A00110BD86
:1039700010B50020A249091F0860A048001D00687A
:1039800020F0F0009D49091D08600846006840F0DD
:103990003000086001209B49C1F8A401FEF723FE16
:1039A00001209749091F0860FEF71DFE0020954978
:1039B000C1F8A00110BD70B504469048001D006814
:1039C00020F0F0008D49091D08600846006840F0AD
:1039D0003000086000208A49091F0860002516E0B1
:1039E000E009874908606006040E0120FEF7FBFD30
:1039F00001208449C1F8A001FEF7F5FD00208049AF
:103A0000091F08600120FEF7EEFD681CC5B2082DF5
:103A1000E6DB70BD2DE9F04105460E461746984697
:103A2000FFF700FF10B90120BDE8F0816906080E1C
:103A3000FFF7C1FFFFF748FF18B9FFF723FF012089
:103A4000F2E73046FFF7B7FFFFF73EFF00240BE039
:103A500018F80400FFF7AFFFFFF736FF18B9FFF7BC
:103A600011FF0020E0E7641CBC42F1DBFFF70AFF16
:103A70000020D9E770B5054600246048001D0068A5
:103A800020F0F0005D49091D08600846006840F01C
:103A900080000860002617E000205949091F0860CF
:103AA0000220FEF7A0FD01205649C1F8A0016006E2
:103AB000040E53488038006808B1601CC4B202206C
:103AC000FEF791FD701CC6B2082EE5DB15B1FFF7BD
:103AD0002BFF01E0FFF74CFF204670BD2DE9F041C0
:103AE00006460F4614461D46FFF79CFE10B90120FE
:103AF000BDE8F0817106080EFFF75DFFFFF7E4FEF9
:103B000018B9FFF7BFFE0120F2E73846FFF753FF71
:103B1000FFF7DAFEFFF786FE012101EB4601C8B28E
:103B2000FFF749FFFFF7D0FE0DE0012C04D1002084
:103B3000FFF7A0FF287003E00120FFF79BFF28702C
:103B40006D1C601EC4B2002CEFD1FFF79BFE00205D
:103B5000CEE770B505460E460024FFF763FE284603
:103B6000FFF729FF641CFFF7AFFE3046FFF723FF86
:103B7000641CFFF7A9FEFFF755FE691CC8B2FFF7EA
:103B80001AFF641CFFF7A0FE0020FFF773FF044636
:103B9000FFF778FE204670BD2DE9F04107468846C4
:103BA00015461E460024FFF73DFE3846FFF703FF8B
:103BB000FFF78AFE4046FFF7FEFEFFF785FEFFF7A0
:103BC00031FE791CC8B2FFF7F6FEFFF77DFE00BF9D
:103BD0000DE0681EA04204D00120FFF74BFF3055D6
:103BE00003E00020FFF746FF3055601CC4B2AC4232
:103BF000EFDBFFF747FE2046BDE8F081000C0140F7
:103C0000A4812142008021422DE9F04180460D46E9
:103C100016461F460024FFF705FE4046FFF7CBFE81
:103C2000FFF752FE2846FFF7C6FEFFF74DFE00BF26
:103C300006E0385DFFF7BFFEFFF746FE601CC4B22A
:103C4000B442F6DBFFF71EFE0120BDE8F08170B53F
:103C500005460E46144631462846FFF77AFF207087
:103C6000012070BD37B504460D4602AB012229463E
:103C70002046FFF7C9FF3EBD2DE9F84307468846B9
:103C800014461D46089E6A4641463846FFF7DFFF48
:103C900028B3601CFF2101FA00F0C4F10801294497
:103CA000491EFF220A41104300F0FF09C5F1080038
:103CB00006FA00F0C6B2C4F1070006419DF8000004
:103CC00000EA090000909DF80000304300909DF844
:103CD000002041463846FFF7C5FFBDE8F8830020C5
:103CE000FBE7F8B506460F4614461D466A463946B8
:103CF0003046FFF7ACFF2DB10120A0409DF8001029
:103D0000084305E00120A0409DF8001021EA0000D2
:103D1000C0B200909DF8002039463046FFF7A2FF60
:103D2000F8BD000010B586B0044601210820FDF75B
:103D3000CBFA01218804FDF7D4FA4FF48060ADF886
:103D4000140003208DF8160018208DF8170005A91F
:103D5000E948FCF797FF4FF40060ADF81400042029
:103D60008DF8170005A9E448FCF78CFF27208DF893
:103D7000000000208DF8010001208DF802008DF870
:103D800003006846FCF79DFB01940020ADF8080095
:103D9000ADF80A00ADF80C00ADF810000C20ADF83D
:103DA0000E0001A9D548FEF744FA012240F2255140
:103DB000D248FEF7D6FA0121D048FEF7C6FA06B07F
:103DC00010BD2DE9FF5F40F22551CC48FEF7AEFB58
:103DD000002876D0C948FEF729FBC9490860084683
:103DE0000078C8490870C6480068592802D10220E6
:103DF000C5490870C2480068582802D10120C2494C
:103E00000870BF4800680A2865DDBD4800685A2868
:103E100009D10020BD490870BD490870BD4908702E
:103E2000BD49087057E0B648006841280AD1012012
:103E3000B64908700020B6490870B6490870B649FE
:103E4000087048E0AE48006845280BD10020AF4913
:103E500008700120AE4908700020AE490870AE49D4
:103E6000087038E0A6480068422807D0A4480068D7
:103E7000432803D0A248006844280AD10020A3495F
:103E80000870A3490870A34908700120A24908706E
:103E900021E09B480068462807D0994800684728D9
:103EA00003D09748006848280CD100209749087033
:103EB00097490870012097490870002096490870BA
:103EC00009E004E100209149087091490870914986
:103ED0000870914908708A4800680A2862DA8848A0
:103EE000006848B9002089490870894908708949E3
:103EF00008708949087055E081480068012809D197
:103F000082490870002082490870824908708249FD
:103F1000087047E07A48006805280BD100207B49EB
:103F2000087001207A49087000207A4908707A499F
:103F3000087037E072480068022807D070480068AF
:103F4000032803D06E48006804280AD100206F4976
:103F500008706F4908706F49087001206E49087039
:103F600020E067480068062807D0654800680728F1
:103F700003D06348006808280BD10020634908700B
:103F80006349087001206349087000206249087085
:103F900008E000205D4908705D4908705D490870BF
:103FA0005D490870574800787B2802D101205B49A1
:103FB0000870544800787D2802D1022057490870C3
:103FC0005648007801280AD14E4800785449554A8D
:103FD0001278885453480078401C524908704F4862
:103FE0000078022873D14E48C078502803D10120B0
:103FF0004D49087071E04A48407823286DD04948FF
:1040000000784A49087034E046490978474A1278EE
:10401000881A08F094FE804642460B460020444928
:1040200007F006FF04460D4640490978491E3C4A00
:10403000515CA1F1300008F082FE064622462B4674
:1040400008F0D0FE82468B463A48006809F0DAF95B
:1040500052465B46CDE9000108F02EFCCDE9020195
:1040600008F0F8FB3349086030480078401E2F49BB
:1040700008702E4800780428C6DA2948407830387D
:10408000092829D2DFE800F0050A0F14191E252699
:10409000270028480068284908601DE02548006876
:1040A0002649086018E0234800682549086013E0A5
:1040B00020480068234908600EE01E480068224935
:1040C000086009E01B4800682049086004E011E02E
:1040D00003E001E000E000BF00BF00200F490870CE
:1040E00010490870114908701249086032210C48C3
:1040F00007F07EF9BDE8FF9F000C0140004800403A
:104100000C010020080100201900002015000020EB
:1041100016000020170000201800002010010020C9
:10412000B2080020110100204600002012010020EA
:104130000000244014010020B8000020BC00002032
:104140006400002068000020C0000020C40000209F
:104150001FB501210846FDF7B7F801210420FDF73E
:10416000B3F84FF48050ADF80C0048208DF80F00E4
:1041700003A91248FCF786FD0C210020FCF798FEED
:104180004FF48050019000208DF808000C208DF82D
:10419000090001208DF80A0001A8FCF793FC2820F3
:1041A0008DF8000002208DF8010001208DF802003A
:1041B0008DF803006846FCF784F91FBD0008014034
:1041C00008B501211020FDF77FF801211020FDF72F
:1041D0007BF848208DF803004FF40050ADF8000044
:1041E00003208DF802006946F648FCF74BFD1020CD
:1041F0008DF803008002ADF800006946F148FCF735
:1042000041FD10208DF80300C002ADF8000003202E
:104210008DF802006946EB48FCF734FD10208DF85C
:1042200003000420ADF8000003208DF80200694669
:10423000E548FCF727FD08BD38B50446012000908D
:104240000020E2494870012000902DE0BDF80000F8
:10425000204018B10120DE49086002E00020DC495E
:1042600008600120DB4908600520FEF7BCF900204A
:10427000D949C1F888010520FEF7B5F90120D649D2
:10428000C1F88801D548D0F8340130B1CF48407822
:10429000BDF800100843CD494870BDF800004FF646
:1042A000FF7101EA40000090BDF80000FF28CDDD5D
:1042B0001020FEF798F938BD10B50020C449091D3B
:1042C0000860C7490878FFF7B7FFC5494878FFF786
:1042D000B3FF0120C149C1F8BC01BC484078732834
:1042E00001D1002010BD0120FCE71CB50020019089
:1042F000012000900020B649091D0860B8490878DF
:10430000FFF79AFFB6494878FFF796FF0220019021
:1043100035E00120009026E00120AE49086005202C
:10432000FEF761F90020AC49C1F888010520FEF7CD
:104330005AF90120A849C1F88801A848D0F83401E9
:1043400050B1A2489DF80410405CBDF8001008432D
:104350009E499DF804208854BDF800004FF6FF7177
:1043600001EA40000090BDF80000FF28D4DD1020D5
:10437000FEF739F99DF80400401CC0B201909DF889
:1043800004000928C5DB01209149091D08601CBDF6
:10439000002004E000218D4A1154411CC8B20928B4
:1043A000F8DB704710B5FFF7F3FFFFF79EFF874874
:1043B000C0788649097940EA01208A4908800024AA
:1043C0000FE0894810F81400401E012101FA00F0A6
:1043D00084490988084010B9601CC0B210BD601C37
:1043E000C4B2102CEDDB0020F8E701467748405CB2
:1043F000704770B505460C4600207549091D0860D8
:104400001020FEF7F0F80120FFF716FF4220FFF71B
:1044100013FF0020FFF710FF2846FFF70DFF20468F
:10442000FFF70AFF0020FFF707FF0020FFF704FF58
:104430000020FFF701FF0020FFF7FEFE0120674983
:10444000C1F8BC011020FEF7CEF870BD10B50020F9
:104450005F49091D08601020FEF7C5F80120FFF72D
:10446000EBFE4220FFF7E8FE0020FFF7E5FE00200C
:10447000FFF7E2FE0020FFF7DFFE01205749C1F8F9
:10448000BC011020FEF7AFF810BD10B50020504958
:10449000091D08601020FEF7A6F80120FFF7CCFEEA
:1044A0004320FFF7C9FE0020FFF7C6FE0120FFF7FB
:1044B000C3FE0020FFF7C0FE0020FFF7BDFE002076
:1044C000FFF7BAFE0020FFF7B7FE0020FFF7B4FEAB
:1044D00001204249C1F8BC011020FEF784F810BD4C
:1044E00010B500203A49091D08600120FFF7A4FE1D
:1044F0004420FFF7A1FE0020FFF79EFE0120FFF7FA
:104500009BFE0320FFF798FE0020FFF795FE00209A
:10451000FFF792FE0020FFF78FFE0020FFF78CFED2
:1045200001202E49C1F8BC011020FEF75CF810BD37
:1045300010B500202649091D08601020FEF753F829
:104540000120FFF779FE4D20FFF776FE0020FFF7F0
:1045500073FE0020FFF770FE0120FFF76DFE0120C3
:104560001E49C1F8BC011020FEF73DF810BD10B582
:1045700000201749091D08601020FEF734F80120BB
:10458000FFF75AFE4320FFF757FE0020FFF754FEC7
:104590000020FFF751FE5A20FFF74EFE5A20FFF78A
:1045A0004BFE5A20FFF748FE5A20FFF745FE5A20DF
:1045B000FFF742FE01200949C1F8BC011020FEF7B7
:1045C00012F810BD0010014000080140E40800206E
:1045D000B80122428801214200002142000022420B
:1045E0001A010020180100201C01002010B5FFF75F
:1045F0002DFFFFF72BFFFFF729FFFFF746FFFFF720
:104600006FFFFFF7B4FF10BD10B5FFF7CBFE784981
:1046100008600720FFF7E9FE764908600820FFF7E9
:10462000E4FE754908600520FFF7DFFE7349086066
:104630000620FFF7DAFE724908606D48006804281A
:1046400008D100216F48006809F038F802D1012034
:104650006D4908606C48006898B167480068762822
:104660000FDA00216748006809F028F809D14FF0F7
:104670007E50644908606548654908606548664938
:10468000086010BD2DE9F04114245B480068C0F1BA
:1046900080055A480068C0F180066042854202DD0C
:1046A000A54200DA00256042864202DDA64200DA19
:1046B0000026284609F072F807464FF08641544814
:1046C000006808F039FF8046394609F0C7F85349B9
:1046D000086000215148006809F08CF912D8304672
:1046E00009F05CF880464FF086414B48006808F0BE
:1046F00023FF80F000474146384609F0AFF84849AB
:1047000008600FE0304609F049F807464FF086414F
:104710004148006808F010FF8046394609F09EF8CD
:104720003F490860324800680B282BD13D4800788B
:10473000401CC0B23B490870142857D100202C49B6
:1047400008603849087038493148006808F086FE2A
:104750002F49074608602F4909F04CF902D22D482D
:104760002B49086031492C48006808F077FE2A4937
:10477000074608602E4909F03DF937D22C482649F2
:10478000086033E01A4800680C282BD129480078CB
:10479000401CC0B227490870142827D100201449B2
:1047A00008602449087020491948006809F05EF93A
:1047B0001749074608601C4909F01CF802D21A483C
:1047C0001349086019491448006809F04FF9124963
:1047D000074608600F4909F00DF807D20D480E4949
:1047E000086003E00020134908700870BDE8F081FC
:1047F0004C0100203C010020400100204401002029
:104800004801002060000020500100200000F0411D
:1048100050000020000048445400002058000020B0
:104820005C000020540100200000C84200009643B4
:104830000000FA445501002000B587B00121042092
:10484000FCF742FD01214804FCF74BFD0420ADF8C4
:10485000180018208DF81B0003208DF81A0006A9F7
:10486000FD48FCF70FFA0820ADF8180004208DF879
:104870001B0006A9F948FCF705FA26208DF814005C
:1048800001208DF815008DF816008DF8170005A889
:10489000FBF717FE4FF4613001900020ADF80800DF
:1048A000ADF80A00ADF80C00ADF810000C20ADF822
:1048B0000E0001A9EA48FDF7BCFC012240F2255197
:1048C000E748FDF74EFD0121E548FDF73EFD07B045
:1048D00000BD2DE9F04F91B0202109A806F0AAFDF6
:1048E0000120E0490870E0498979DF4A527901EBFB
:1048F000022008F024FA07460022DC4B08F098F862
:10490000054607F0A7FF8346D74991F83810D64AE5
:1049100092F8372001EB022008F011FA0546002238
:10492000D24B08F085F8074607F094FF0890202145
:10493000684606F07FFDCE49584609F05BF809D27B
:10494000CC49089808F056FF04D2CB49089808F0E3
:1049500085FD08904FF0000927E0484608F036FF33
:1049600007465946089809F081F880464FF0824181
:1049700008F0E2FD0646394608F070FF0546594644
:1049800008F06CFD4DF829005DF82900BA4909F0DE
:1049900031F806D25DF82900B74909F067F84DF8FB
:1049A000290009F1010000F0FF09B9F1080FD4DB7B
:1049B0000024A0E0102C75D2DFE804F008091A1BCF
:1049C0002C2D3E3F505162637576878800BF04EB03
:1049D0004401A548C01D0844417804EB4402A248A4
:1049E000C01D805C01EB00200999084409907FE01C
:1049F00000BF04EB44019C48C01D0844417804EB0F
:104A000044029948C01D805C01EB00200A990844CB
:104A10000A906DE000BF04EB44019348C01D0844B8
:104A2000417804EB44029048C01D805C01EB0020FB
:104A30000B9908440B905BE000BF04EB44018A48EB
:104A4000C01D0844417804EB44028748C01D805CC7
:104A500001EB00200C9908440C9049E000BF04EBE6
:104A600044018148C01D0844417804EB44027E485B
:104A7000C01D805C01EB00200D9908440D9037E0CB
:104A800000BF04EB44017848C01D0844417804EBA2
:104A900044027548C01D805C01EB00200E9908445B
:104AA0000E9025E023E000BF04EB44016E48C01DDA
:104AB0000844417804EB44026B48C01D805C01EB64
:104AC00000200F9908440F9012E000BF04EB44014E
:104AD0006548C01D0844417804EB44026248C01D8B
:104AE000805C01EB002010990844109000E000BFAA
:104AF00000BF601CC4B2102CFFF65CAF4FF0000A80
:104B000016E05DF82A005D49097851445C4A02EBE1
:104B1000C101486009A850F82A00C0F34F00574966
:104B20000978514422F831000AF1010000F0FF0A2F
:104B3000BAF1080FE5DB5148007808304F4908709A
:104B400008460078E12816DB00240FE04C4800EB13
:104B5000C40040684B4901EBC4014860484830F844
:104B60003400484921F83400601CC4B2E12CEDDB6C
:104B700000204249087011B0BDE8F08F10B540F236
:104B800025513748FDF7D2FC002864D040F225516A
:104B90003348FDF7F5FC3248FDF748FCC4B23A480B
:104BA00000783A2874D2DFE800F01D32477A879403
:104BB000A1AEF2F0AFF3EEB0F4ECB1F5EAB2F6E884
:104BC000B3F7E6B4F8E4B5F9E2B6FAE0B7FBDEB85D
:104BD000FCDCB9FDDABAFED8BBFFD6BCD5D4BDD358
:104BE000D2D1D0CFA52C0CD11F4804702648007814
:104BF000401C254908702548007820442349087046
:104C000004E0002020490870204908703FE15A2C38
:104C10000CD1154844701C480078401C1A49087093
:104C20001A48007820441949087004E00020164909
:104C30000870164908702AE13A2C2AD10A48847073
:104C400011480078401C1049087010480078204432
:104C50000E49087022E01BE10010014000140140E1
:104C60000044004033000020F80F002000005940AD
:104C70000000AF43000050410000B4436C0100202D
:104C8000F0080020341000206D0100206E0100208B
:104C9000FCE00020DE490870DE490870F7E0DE48DD
:104CA000C470DB480078401CD9490870D9480078A6
:104CB0002044D8490870EAE0D7480471D448007805
:104CC000401CD3490870D34800782044D14908706B
:104CD000DDE0D1484471CE480078401CCC490870D2
:104CE000CC4800782044CB490870D0E0CA48847191
:104CF000C7480078401CC6490870C6480078204460
:104D0000C4490870C3E000BF00BF00BF00BF00BFC0
:104D100000BF00BF00BF00BF00BF00BF00BF00BF9B
:104D200000BF00BFBD48007800EB4001BA48C01D7D
:104D30004454B7480078401CB5490870B54800781D
:104D40002044B4490870A2E086E077E068E04FE0D4
:104D50002CE04CE029E049E026E046E023E043E097
:104D600020E040E01DE03DE01AE03AE017E037E0E7
:104D700014E034E011E031E00EE02EE00BE02BE037
:104D800008E028E005E025E002E022E0FFE700BFC0
:104D900000BF00BF00BF00BF00BF00BF00BF00BF1B
:104DA00000BF00BF00BF00BF00BF00BF9B4800782E
:104DB00000EB40019848C01D0844447094480078B6
:104DC000401C93490870934800782044914908702A
:104DD0005DE000BF00BF00BF00BF00BF00BF00BF5D
:104DE00000BF00BF00BF00BF00BF00BF00BF00BFCB
:104DF0008A48007800EB40018748C01D0844847051
:104E000083480078401C824908708248007820441A
:104E10008049087081480078401C8049087036E05D
:104E20007D4880F837407A480078401C78490870FF
:104E30007848007820447749087028E0764880F860
:104E4000384073480078401C7149087071480078F8
:104E50002044704908701AE06F4880F839400020FB
:104E60006B4908706D4908706B4890F839006949C2
:104E70000978884202D1FFF72CFD03E03A21664809
:104E800006F0D8FA00206349087000E000BF00BFB8
:104E900010BD2DE9F35FDDE9000108F0DCFD60499C
:104EA0000860604801685E48006808F0DFFD8146E0
:104EB0005D4908F0D3FC804608F0A4FA04460D468C
:104EC0005748006808F09EFA80460022574B07F0CA
:104ED00089FF064622462B4608F0AAF9824607F0CB
:104EE000B9FC534908604E4800684E490860504874
:104EF0000068BDE8FC9F2DE9F34F81B0DDE90101B9
:104F000008F0A9FD4B4908604B4801684948006812
:104F100008F0ACFD009008F075FA0646474A484B89
:104F200007F060FF04460D464248006808F06AFA40
:104F300006464FF03332434B07F054FF804622467B
:104F40002B4608F075F9824607F084FC3E4908605C
:104F500038480068384908603B480068BDE8FE8F63
:104F60002DE9F04704460D462946204608F073FD1A
:104F70003649086036493748006808F03BFD03D2DF
:104F800033483449086008E033493248006808F083
:104F900031FC02D230482F490860304801682B4864
:104FA000006808F063FD80462D480168404608F01F
:104FB00055FC0646274801682A48006808F04EFC60
:104FC00082462948006880F0004920480168484628
:104FD00008F044FC8046514608F048FD074631463B
:104FE00008F044FD21490860184800681B49086022
:104FF0001F4801681F48006800F078F8012802D1B6
:1050000000201449086019480068BDE8F0870000D6
:105010006D0100206E010020F80F00206F010020BC
:1050200070010020780100200000C842000004C088
:10503000740100207C010020840100209A99999934
:105040009999B93F3333C3BF800100208801002004
:1050500000007A449001002000007AC494010020EE
:105060005C01002060010020580100208C0100201C
:1050700028000020800000200146002901DA484273
:1050800000E00846704700B503460A46002B07DDDE
:105090000120FA4908600020F949C1F8BC0106E086
:1050A0000020F64908600120F549C1F8BC01184606
:1050B000FFF7E2FFF3490880002A08DD0120EF49ED
:1050C000091F08600020EE49C1F8B00107E0002088
:1050D000EA49091F08600120E949C1F8B0011046FA
:1050E000FFF7CAFFE7490C31088000BD70B50646DE
:1050F0000D46E549304608F07DFB0BD3E3493046C9
:1051000008F078FC06D3E2480078012802D0B5F513
:105110007A7F0DDA01240020D8490860D849C1F807
:10512000BC01D649091F0860D549C1F8B00100E0AB
:105130000024204670BD2DE9F04106460C46154678
:10514000D348007810B90020BDE8F081D14800882C
:10515000D0B9D1490968A1F10A0008F01FFB074640
:10516000314608F047FB0FD2CB49096801F10A002C
:1051700008F014FB0746314608F03CFC04D21CB989
:1051800015B90120C3490880C2480088012819D1F7
:10519000C2480088401C80B2C0490880322803DD24
:1051A00000200880BB490880032C0BDD032D09DD9E
:1051B000282C07DA282D05DA0020B6490880088057
:1051C0000120C1E70020BFE72DE9F04106460F4668
:1051D00014461D46B2480088E0B92046FFF74CFF50
:1051E00002462846FFF748FF10441E2805DAAD485E
:1051F0000088401CAB49088002E00020A9490880D3
:10520000A84800880A2805DD0120A549088000205B
:10521000A4490880A2480088012829D1A248008812
:10522000401C80B2A0490880C82803DD0020088007
:105230009B4908809D49304608F0DCFB18D296490E
:105240000968A1F1140008F0A9FA8046394608F06F
:10525000D1FA0DD29049096801F1140008F09EFAC4
:105260008046394608F0C6FB02D202208C490880ED
:105270008B480088022816D18D480088401C80B2D7
:105280008B490880642803DD002008808449088059
:105290006019FFF7F1FE462805DD002080490880EF
:1052A0000120BDE8F0810020FBE703461846884254
:1052B00000DD0846904200DA104670472DE9F05FA5
:1052C00004460D46611B484208F068FA0646374618
:1052D0003946304608F0CAFB83467648016858468E
:1052E00008F0BCFA814674480168304608F0B6FA06
:1052F0008246494608F0B2F88046404608F012FA65
:10530000BDE8F09F2DE9FC5F05460E466248006847
:1053100008F044FA8146294608F0A8FB04463146C5
:10532000002008F0A3FB01903946204608F09EFBC0
:10533000834662480168584608F090FA8246604801
:10534000006880F0004B2146584608F087FA514625
:10535000009008F08BFB814608F0E4F98046274670
:105360004046BDE8FC9F2DE9F84F81460C464FF4BE
:105370007A7094FBF0F4C4F1000A504607F0DFFCA9
:105380000746504A504B07F02DFD054607F0A8FC94
:105390008246504608F002FA0546594608F05EF883
:1053A0008346484608F0FAF90546594608F056F88B
:1053B000834646480068B0F57A7F03DD4FF4FA6013
:1053C000424908604148006810F57A7F02DA404897
:1053D0003E49086059463F48006808F03FFA00908F
:1053E000504608F0DBF980463B48006880F00047F3
:1053F0004146384608F032FA0646009908F036FB76
:10540000054608F08FF93149086008460068BDE894
:10541000F88F2DE9F04105460C463049204608F04A
:105420001DFA0646284608F0B9F90746314608F045
:10543000E1FA08D22949204608F010FA064608F099
:1054400071F905464DE084F000472449384608F0DC
:1054500005FA0646284608F0A1F98046314608F0CC
:10546000C9F93DD284F000471C49384608F0F6F9E6
:10547000064608F057F9054633E00000B88121429E
:1054800000802142342C0140000020C20000204254
:105490001A0000204C0200202C0000204E020020A8
:1054A0004402002046020020480200200020CB4693
:1054B0004A020020CC000020C8000020BC000020D0
:1054C000B8000020E17A14AE47E1EA3F180200205C
:1054D00030F8FFFFA4000020A000002000003E44A0
:1054E00000BF2846BDE8F0812DE9F84F82468B4683
:1054F000FE49504608F0B2F9009007F083FF0746D6
:10550000FB4AFC4B07F06EFC054607F0A3F9824608
:105510005946504608F0AAFA0446204607F072FFA2
:1055200021F0004105460022F34B07F01FFC00D29A
:1055300000242146F148006807F090FFEF49086019
:10554000EF49EE48006808F055FA02D2EC48EB4902
:105550000860EC49E948006808F04CF902D2E948D3
:10556000E64908600021204608F0A8F80DD1E3487C
:10557000006807F047FF0746E34AE44B07F032FCB8
:10558000054607F067F9DD490860E14801682046F3
:1055900008F06CFA0746DF480168384608F05EF903
:1055A0000546D6480168DC48006808F057F9074608
:1055B0002146DA48006808F051F98046394607F07C
:1055C0004DFF0646294607F049FF8146D048046052
:1055D000484608F0A7F8BDE8F88F10B5D048007825
:1055E000072836D1CF480078012832D0CE4800783D
:1055F00001282ED000BF0220FDF754FDCB490860E2
:105600000120FDF74FFDCA4908600920FDF74AFD5A
:10561000C8490860C5480068C549096801EBC1026E
:1056200002EB011100EB8101C2480068C72200FBB8
:105630000214BE480068BE4909680844BD490968AB
:10564000084494FBF0F0BC490860BC48BC490860C1
:1056500000BF10BDBB480088BB4908800520BB497E
:10566000088014E0B748B949098830F81100B649F4
:105670000988884206DBB348B449098830F811002C
:10568000B1490880B1480088401CB0490880AF4843
:1056900000887B28E6DBAB480088AD490880052000
:1056A000AA49088014E0A748A849098830F81100E1
:1056B000A7490988884206DCA248A449098830F82D
:1056C0001100A3490880A1480088401C9F49088018
:1056D0009E4800887B28E6DB9B4909889C4A128803
:1056E000881800EBD071C1F347019A4A1170052068
:1056F0009649088044E093489449098830F811009D
:1057000094490978884236DD8E4990480088401CCB
:1057100031F810008F49097888422CDD89498B487F
:105720000088801C31F810008A490978884222DDFF
:10573000844986480088C01C31F8100085490978E2
:10574000884218DA7F4981480088001D31F810002E
:105750008049097888420EDA7A497C480088401DE1
:1057600031F810007B490978884204DA77480088CC
:105770007949088008E075480088401C7349088012
:10578000724800887628B6DB00BF7620734908800F
:1057900044E06C487149098830F811006D49097876
:1057A000884236DA67496D480088401C31F810009D
:1057B0006849097888422CDA624968480088801C68
:1057C00031F8100063490978884222DA5D4963485C
:1057D0000088C01C31F810005E490978884218DD45
:1057E00058495E480088001D31F810005949097871
:1057F00088420EDD534959480088401D31F8100099
:1058000054490978884204DD544800885449088086
:1058100008E052480088401E504908804F480088E0
:105820000528B6DC00BF4E4909884B4A1288881803
:1058300000EBD071C1F347014A4A1170704710B5AF
:1058400037480078062819D136480078012815D045
:1058500035480078012811D0384839490860424855
:105860000078401CC0B240490870042806D1FDF7FA
:1058700030FCFFF7EFFE00203B49087010BD2DE91A
:10588000F0413A4805882648007805287CD125480B
:105890000078012878D024480078012874D0344852
:1058A0002749086000248DE0324901EBC4014868B3
:1058B000314908F09FF868D22E4901EBC4014868CD
:1058C0002E4907F097FF7BD22D480088B0F5167F50
:1058D00068DA284830F834002449088008460088EF
:1058E000C83028490880264800884FE000008244DC
:1058F000A4703D0AD7A3F03F00001440140200201A
:1059000000807244008072C4CDCCCCCCCCCCEC3FB7
:1059100010020020B4000020B0000020AC000020E5
:105920003000002017000020180000209C010020FB
:10593000A0010020A4010020A801002000002042B6
:1059400058000020A8030020680200206002002008
:105950006A0200203200002064020020620200205F
:1059600066020020310000206C0200205C02002052
:105970000000F0413410002000008E4200009442EC
:10598000340000205E0200202DE019E0401CFE499A
:1059900008800846008840F25721884202D1401C06
:1059A000F9490880F94830F83400F94909888842F3
:1059B00006DAF64830F8345030F83400F54908601B
:1059C000601CC4B2E12CFFF66FAFF348008807F00B
:1059D000FDFE0646284607F0F9FE07463146FFF76A
:1059E00058FAEE490860BDE8F0812DE9F041002643
:1059F0004FF6FF750027EA48007804287FD1E94870
:105A0000007801287BD0E8480078012877D000246E
:105A10001EE0DE4830F83400002817DDDB4830F89F
:105A2000340040F2DC51884210DA701CC6B2D7480C
:105A300030F83400A84209DAD44830F8345000EB8A
:105A4000C4004068D9490860D2480560601CC4B2EF
:105A5000E12CDEDBD649D548006807F0CBFF06D243
:105A6000D449D248006808F001F8D0490860D2480B
:105A70000168CE48006807F0F9FF8046CF4907F07B
:105A8000B9FF0AD3CC480168C848006807F0EEFFA8
:105A90008046CB4907F0AEFE0AD2781CC0B207465A
:105AA0003C280AD10027C1480068C349086004E0C7
:105AB0000027BE480068C0490860052E11DD284651
:105AC00007F084FE8046BF49FFF715FABE4908601B
:105AD0000021B6480068FFF743FAB049086005E0C6
